{
  "_format": "hh-sol-artifact-1",
  "contractName": "TBillVault",
  "sourceName": "contracts/tBill.sol",
  "abi": [
    {
      "inputs": [
        {
          "internalType": "address",
          "name": "_cusdcToken",
          "type": "address"
        },
        {
          "internalType": "address",
          "name": "_tbillToken",
          "type": "address"
        },
        {
          "internalType": "uint256",
          "name": "_yieldRate",
          "type": "uint256"
        }
      ],
      "stateMutability": "nonpayable",
      "type": "constructor"
    },
    {
      "inputs": [
        {
          "internalType": "address",
          "name": "target",
          "type": "address"
        }
      ],
      "name": "AddressEmptyCode",
      "type": "error"
    },
    {
      "inputs": [
        {
          "internalType": "address",
          "name": "account",
          "type": "address"
        }
      ],
      "name": "AddressInsufficientBalance",
      "type": "error"
    },
    {
      "inputs": [],
      "name": "FailedInnerCall",
      "type": "error"
    },
    {
      "inputs": [
        {
          "internalType": "address",
          "name": "token",
          "type": "address"
        }
      ],
      "name": "SafeERC20FailedOperation",
      "type": "error"
    },
    {
      "anonymous": false,
      "inputs": [
        {
          "indexed": true,
          "internalType": "address",
          "name": "account",
          "type": "address"
        },
        {
          "indexed": false,
          "internalType": "uint256",
          "name": "amount",
          "type": "uint256"
        }
      ],
      "name": "Deposit",
      "type": "event"
    },
    {
      "anonymous": false,
      "inputs": [
        {
          "indexed": true,
          "internalType": "address",
          "name": "account",
          "type": "address"
        },
        {
          "indexed": false,
          "internalType": "uint256",
          "name": "amount",
          "type": "uint256"
        }
      ],
      "name": "Redeem",
      "type": "event"
    },
    {
      "anonymous": false,
      "inputs": [
        {
          "indexed": true,
          "internalType": "address",
          "name": "account",
          "type": "address"
        },
        {
          "indexed": false,
          "internalType": "uint256",
          "name": "amount",
          "type": "uint256"
        }
      ],
      "name": "Withdraw",
      "type": "event"
    },
    {
      "anonymous": false,
      "inputs": [
        {
          "indexed": false,
          "internalType": "uint256",
          "name": "newRate",
          "type": "uint256"
        }
      ],
      "name": "YieldUpdated",
      "type": "event"
    },
    {
      "inputs": [],
      "name": "cusdcToken",
      "outputs": [
        {
          "internalType": "contract IERC20",
          "name": "",
          "type": "address"
        }
      ],
      "stateMutability": "view",
      "type": "function"
    },
    {
      "inputs": [
        {
          "internalType": "uint256",
          "name": "amount",
          "type": "uint256"
        }
      ],
      "name": "deposit",
      "outputs": [],
      "stateMutability": "nonpayable",
      "type": "function"
    },
    {
      "inputs": [
        {
          "internalType": "uint256",
          "name": "",
          "type": "uint256"
        }
      ],
      "name": "investorAddresses",
      "outputs": [
        {
          "internalType": "address",
          "name": "",
          "type": "address"
        }
      ],
      "stateMutability": "view",
      "type": "function"
    },
    {
      "inputs": [
        {
          "internalType": "address",
          "name": "",
          "type": "address"
        }
      ],
      "name": "investors",
      "outputs": [
        {
          "internalType": "uint256",
          "name": "depositedAmount",
          "type": "uint256"
        },
        {
          "internalType": "uint256",
          "name": "tbillBalance",
          "type": "uint256"
        },
        {
          "internalType": "uint256",
          "name": "yieldEarned",
          "type": "uint256"
        },
        {
          "internalType": "uint256",
          "name": "lastYieldUpdate",
          "type": "uint256"
        }
      ],
      "stateMutability": "view",
      "type": "function"
    },
    {
      "inputs": [],
      "name": "lastYieldUpdate",
      "outputs": [
        {
          "internalType": "uint256",
          "name": "",
          "type": "uint256"
        }
      ],
      "stateMutability": "view",
      "type": "function"
    },
    {
      "inputs": [],
      "name": "owner",
      "outputs": [
        {
          "internalType": "address",
          "name": "",
          "type": "address"
        }
      ],
      "stateMutability": "view",
      "type": "function"
    },
    {
      "inputs": [
        {
          "internalType": "uint256",
          "name": "amount",
          "type": "uint256"
        }
      ],
      "name": "redeem",
      "outputs": [],
      "stateMutability": "nonpayable",
      "type": "function"
    },
    {
      "inputs": [],
      "name": "tbillToken",
      "outputs": [
        {
          "internalType": "contract TBILLToken",
          "name": "",
          "type": "address"
        }
      ],
      "stateMutability": "view",
      "type": "function"
    },
    {
      "inputs": [],
      "name": "updateYield",
      "outputs": [],
      "stateMutability": "nonpayable",
      "type": "function"
    },
    {
      "inputs": [
        {
          "internalType": "uint256",
          "name": "amount",
          "type": "uint256"
        }
      ],
      "name": "withdraw",
      "outputs": [],
      "stateMutability": "nonpayable",
      "type": "function"
    },
    {
      "inputs": [],
      "name": "yieldRate",
      "outputs": [
        {
          "internalType": "uint256",
          "name": "",
          "type": "uint256"
        }
      ],
      "stateMutability": "view",
      "type": "function"
    }
  ],
  "bytecode": "0x60806040523480156200001157600080fd5b5060405162001a2e38038062001a2e833981810160405281019062000037919062000175565b82600360006101000a81548173ffffffffffffffffffffffffffffffffffffffff021916908373ffffffffffffffffffffffffffffffffffffffff16021790555081600460006101000a81548173ffffffffffffffffffffffffffffffffffffffff021916908373ffffffffffffffffffffffffffffffffffffffff1602179055508060058190555042600681905550505050620001d1565b600080fd5b600073ffffffffffffffffffffffffffffffffffffffff82169050919050565b60006200010282620000d5565b9050919050565b6200011481620000f5565b81146200012057600080fd5b50565b600081519050620001348162000109565b92915050565b6000819050919050565b6200014f816200013a565b81146200015b57600080fd5b50565b6000815190506200016f8162000144565b92915050565b600080600060608486031215620001915762000190620000d0565b5b6000620001a18682870162000123565b9350506020620001b48682870162000123565b9250506040620001c7868287016200015e565b9150509250925092565b61184d80620001e16000396000f3fe608060405234801561001057600080fd5b50600436106100a95760003560e01c806395a25efa1161007157806395a25efa14610157578063b6b55f2514610187578063bb21a997146101a3578063cde92520146101ad578063db006a75146101cb578063fdb60b4b146101e7576100a9565b80632e1a7d4d146100ae5780636999ac93146100ca5780636f7bc9be146100e85780638da5cb5b1461011b5780638f8c8aee14610139575b600080fd5b6100c860048036038101906100c39190611096565b610205565b005b6100d2610581565b6040516100df91906110d2565b60405180910390f35b61010260048036038101906100fd919061114b565b610587565b6040516101129493929190611178565b60405180910390f35b6101236105b7565b60405161013091906111cc565b60405180910390f35b6101416105db565b60405161014e91906110d2565b60405180910390f35b610171600480360381019061016c9190611096565b6105e1565b60405161017e91906111cc565b60405180910390f35b6101a1600480360381019061019c9190611096565b610620565b005b6101ab610884565b005b6101b56109d3565b6040516101c29190611246565b60405180910390f35b6101e560048036038101906101e09190611096565b6109f9565b005b6101ef610ce6565b6040516101fc9190611282565b60405180910390f35b60008054906101000a900473ffffffffffffffffffffffffffffffffffffffff1673ffffffffffffffffffffffffffffffffffffffff163373ffffffffffffffffffffffffffffffffffffffff1614610293576040517f08c379a000000000000000000000000000000000000000000000000000000000815260040161028a90611320565b60405180910390fd5b600081116102d6576040517f08c379a00000000000000000000000000000000000000000000000000000000081526004016102cd906113b2565b60405180910390fd5b80600160003373ffffffffffffffffffffffffffffffffffffffff1673ffffffffffffffffffffffffffffffffffffffff16815260200190815260200160002060010154101561035b576040517f08c379a00000000000000000000000000000000000000000000000000000000081526004016103529061141e565b60405180910390fd5b600460009054906101000a900473ffffffffffffffffffffffffffffffffffffffff1673ffffffffffffffffffffffffffffffffffffffff16639dc29fac33836040518363ffffffff1660e01b81526004016103b892919061143e565b600060405180830381600087803b1580156103d257600080fd5b505af11580156103e6573d6000803e3d6000fd5b505050506104373382600360009054906101000a900473ffffffffffffffffffffffffffffffffffffffff1673ffffffffffffffffffffffffffffffffffffffff16610d0c9092919063ffffffff16565b80600160003373ffffffffffffffffffffffffffffffffffffffff1673ffffffffffffffffffffffffffffffffffffffff16815260200190815260200160002060000160008282546104899190611496565b9250508190555080600160003373ffffffffffffffffffffffffffffffffffffffff1673ffffffffffffffffffffffffffffffffffffffff16815260200190815260200160002060010160008282546104e29190611496565b9250508190555042600160003373ffffffffffffffffffffffffffffffffffffffff1673ffffffffffffffffffffffffffffffffffffffff168152602001908152602001600020600301819055503373ffffffffffffffffffffffffffffffffffffffff167f884edad9ce6fa2440d8a54cc123490eb96d2768479d49ff9c7366125a94243648260405161057691906110d2565b60405180910390a250565b60055481565b60016020528060005260406000206000915090508060000154908060010154908060020154908060030154905084565b60008054906101000a900473ffffffffffffffffffffffffffffffffffffffff1681565b60065481565b600281815481106105f157600080fd5b906000526020600020016000915054906101000a900473ffffffffffffffffffffffffffffffffffffffff1681565b60008111610663576040517f08c379a000000000000000000000000000000000000000000000000000000000815260040161065a9061153c565b60405180910390fd5b6106b2333083600360009054906101000a900473ffffffffffffffffffffffffffffffffffffffff1673ffffffffffffffffffffffffffffffffffffffff16610d8b909392919063ffffffff16565b600460009054906101000a900473ffffffffffffffffffffffffffffffffffffffff1673ffffffffffffffffffffffffffffffffffffffff166340c10f1933836040518363ffffffff1660e01b815260040161070f92919061143e565b600060405180830381600087803b15801561072957600080fd5b505af115801561073d573d6000803e3d6000fd5b505050506000600160003373ffffffffffffffffffffffffffffffffffffffff1673ffffffffffffffffffffffffffffffffffffffff168152602001908152602001600020905081816000016000828254610798919061155c565b92505081905550818160010160008282546107b3919061155c565b9250508190555042816003018190555081816000015403610832576002339080600181540180825580915050600190039060005260206000200160009091909190916101000a81548173ffffffffffffffffffffffffffffffffffffffff021916908373ffffffffffffffffffffffffffffffffffffffff1602179055505b3373ffffffffffffffffffffffffffffffffffffffff167fe1fffcc4923d04b559f4d29a8bfc6cda04eb5b0d3c460751c2402c5c5cc9109c8360405161087891906110d2565b60405180910390a25050565b6000600654426108949190611496565b90506000805b60028054905081101561099057600060016000600284815481106108c1576108c0611590565b5b9060005260206000200160009054906101000a900473ffffffffffffffffffffffffffffffffffffffff1673ffffffffffffffffffffffffffffffffffffffff1673ffffffffffffffffffffffffffffffffffffffff1681526020019081526020016000209050600063bbf81e0085600554846000015461094291906115bf565b61094c91906115bf565b6109569190611630565b90508082600201600082825461096c919061155c565b92505081905550808461097f919061155c565b93505050808060010191505061089a565b50426006819055507f90427aaa52d772393dbc0baaaa6eb821cdec72ed0870206d71ccc004efe43bba816040516109c791906110d2565b60405180910390a15050565b600460009054906101000a900473ffffffffffffffffffffffffffffffffffffffff1681565b60008054906101000a900473ffffffffffffffffffffffffffffffffffffffff1673ffffffffffffffffffffffffffffffffffffffff163373ffffffffffffffffffffffffffffffffffffffff1614610a87576040517f08c379a0000000000000000000000000000000000000000000000000000000008152600401610a7e90611320565b60405180910390fd5b60008111610aca576040517f08c379a0000000000000000000000000000000000000000000000000000000008152600401610ac1906116d3565b60405180910390fd5b80600160003373ffffffffffffffffffffffffffffffffffffffff1673ffffffffffffffffffffffffffffffffffffffff168152602001908152602001600020600101541015610b4f576040517f08c379a0000000000000000000000000000000000000000000000000000000008152600401610b469061141e565b60405180910390fd5b610b9c3382600360009054906101000a900473ffffffffffffffffffffffffffffffffffffffff1673ffffffffffffffffffffffffffffffffffffffff16610d0c9092919063ffffffff16565b80600160003373ffffffffffffffffffffffffffffffffffffffff1673ffffffffffffffffffffffffffffffffffffffff1681526020019081526020016000206000016000828254610bee9190611496565b9250508190555080600160003373ffffffffffffffffffffffffffffffffffffffff1673ffffffffffffffffffffffffffffffffffffffff1681526020019081526020016000206001016000828254610c479190611496565b9250508190555042600160003373ffffffffffffffffffffffffffffffffffffffff1673ffffffffffffffffffffffffffffffffffffffff168152602001908152602001600020600301819055503373ffffffffffffffffffffffffffffffffffffffff167f222838db2794d11532d940e8dec38ae307ed0b63cd97c233322e221f998767a682604051610cdb91906110d2565b60405180910390a250565b600360009054906101000a900473ffffffffffffffffffffffffffffffffffffffff1681565b610d86838473ffffffffffffffffffffffffffffffffffffffff1663a9059cbb8585604051602401610d3f92919061143e565b604051602081830303815290604052915060e01b6020820180517bffffffffffffffffffffffffffffffffffffffffffffffffffffffff8381831617835250505050610e0d565b505050565b610e07848573ffffffffffffffffffffffffffffffffffffffff166323b872dd868686604051602401610dc0939291906116f3565b604051602081830303815290604052915060e01b6020820180517bffffffffffffffffffffffffffffffffffffffffffffffffffffffff8381831617835250505050610e0d565b50505050565b6000610e38828473ffffffffffffffffffffffffffffffffffffffff16610ea490919063ffffffff16565b90506000815114158015610e5d575080806020019051810190610e5b9190611762565b155b15610e9f57826040517f5274afe7000000000000000000000000000000000000000000000000000000008152600401610e9691906111cc565b60405180910390fd5b505050565b6060610eb283836000610eba565b905092915050565b606081471015610f0157306040517fcd786059000000000000000000000000000000000000000000000000000000008152600401610ef891906111cc565b60405180910390fd5b6000808573ffffffffffffffffffffffffffffffffffffffff168486604051610f2a9190611800565b60006040518083038185875af1925050503d8060008114610f67576040519150601f19603f3d011682016040523d82523d6000602084013e610f6c565b606091505b5091509150610f7c868383610f87565b925050509392505050565b606082610f9c57610f9782611016565b61100e565b60008251148015610fc4575060008473ffffffffffffffffffffffffffffffffffffffff163b145b1561100657836040517f9996b315000000000000000000000000000000000000000000000000000000008152600401610ffd91906111cc565b60405180910390fd5b81905061100f565b5b9392505050565b6000815111156110295780518082602001fd5b6040517f1425ea4200000000000000000000000000000000000000000000000000000000815260040160405180910390fd5b600080fd5b6000819050919050565b61107381611060565b811461107e57600080fd5b50565b6000813590506110908161106a565b92915050565b6000602082840312156110ac576110ab61105b565b5b60006110ba84828501611081565b91505092915050565b6110cc81611060565b82525050565b60006020820190506110e760008301846110c3565b92915050565b600073ffffffffffffffffffffffffffffffffffffffff82169050919050565b6000611118826110ed565b9050919050565b6111288161110d565b811461113357600080fd5b50565b6000813590506111458161111f565b92915050565b6000602082840312156111615761116061105b565b5b600061116f84828501611136565b91505092915050565b600060808201905061118d60008301876110c3565b61119a60208301866110c3565b6111a760408301856110c3565b6111b460608301846110c3565b95945050505050565b6111c68161110d565b82525050565b60006020820190506111e160008301846111bd565b92915050565b6000819050919050565b600061120c611207611202846110ed565b6111e7565b6110ed565b9050919050565b600061121e826111f1565b9050919050565b600061123082611213565b9050919050565b61124081611225565b82525050565b600060208201905061125b6000830184611237565b92915050565b600061126c82611213565b9050919050565b61127c81611261565b82525050565b60006020820190506112976000830184611273565b92915050565b600082825260208201905092915050565b7f4f6e6c792074686520636f6e7472616374206f776e65722063616e207065726660008201527f6f726d207468697320616374696f6e0000000000000000000000000000000000602082015250565b600061130a602f8361129d565b9150611315826112ae565b604082019050919050565b60006020820190508181036000830152611339816112fd565b9050919050565b7f5769746864726177616c20616d6f756e74206d7573742062652067726561746560008201527f72207468616e207a65726f000000000000000000000000000000000000000000602082015250565b600061139c602b8361129d565b91506113a782611340565b604082019050919050565b600060208201905081810360008301526113cb8161138f565b9050919050565b7f496e73756666696369656e74205442494c4c2062616c616e6365000000000000600082015250565b6000611408601a8361129d565b9150611413826113d2565b602082019050919050565b60006020820190508181036000830152611437816113fb565b9050919050565b600060408201905061145360008301856111bd565b61146060208301846110c3565b9392505050565b7f4e487b7100000000000000000000000000000000000000000000000000000000600052601160045260246000fd5b60006114a182611060565b91506114ac83611060565b92508282039050818111156114c4576114c3611467565b5b92915050565b7f4465706f73697420616d6f756e74206d7573742062652067726561746572207460008201527f68616e207a65726f000000000000000000000000000000000000000000000000602082015250565b600061152660288361129d565b9150611531826114ca565b604082019050919050565b6000602082019050818103600083015261155581611519565b9050919050565b600061156782611060565b915061157283611060565b925082820190508082111561158a57611589611467565b5b92915050565b7f4e487b7100000000000000000000000000000000000000000000000000000000600052603260045260246000fd5b60006115ca82611060565b91506115d583611060565b92508282026115e381611060565b915082820484148315176115fa576115f9611467565b5b5092915050565b7f4e487b7100000000000000000000000000000000000000000000000000000000600052601260045260246000fd5b600061163b82611060565b915061164683611060565b92508261165657611655611601565b5b828204905092915050565b7f52656465656d20616d6f756e74206d757374206265206772656174657220746860008201527f616e207a65726f00000000000000000000000000000000000000000000000000602082015250565b60006116bd60278361129d565b91506116c882611661565b604082019050919050565b600060208201905081810360008301526116ec816116b0565b9050919050565b600060608201905061170860008301866111bd565b61171560208301856111bd565b61172260408301846110c3565b949350505050565b60008115159050919050565b61173f8161172a565b811461174a57600080fd5b50565b60008151905061175c81611736565b92915050565b6000602082840312156117785761177761105b565b5b60006117868482850161174d565b91505092915050565b600081519050919050565b600081905092915050565b60005b838110156117c35780820151818401526020810190506117a8565b60008484015250505050565b60006117da8261178f565b6117e4818561179a565b93506117f48185602086016117a5565b80840191505092915050565b600061180c82846117cf565b91508190509291505056fea2646970667358221220ca8878198b1196d48aa96254371dbc15d953d94edca91ca916089965c8b3fc1f64736f6c63430008180033",
  "linkReferences": {},
  "deployedLinkReferences": {}
}