{
  "_format": "hh-sol-artifact-1",
  "contractName": "TBillVault",
  "sourceName": "contracts/TbillVault.sol",
  "abi": [
    {
      "inputs": [
        {
          "internalType": "address",
          "name": "_cusdcToken",
          "type": "address"
        },
        {
          "internalType": "address",
          "name": "_tbillToken",
          "type": "address"
        },
        {
          "internalType": "uint256",
          "name": "_yieldRate",
          "type": "uint256"
        }
      ],
      "stateMutability": "nonpayable",
      "type": "constructor"
    },
    {
      "inputs": [
        {
          "internalType": "address",
          "name": "target",
          "type": "address"
        }
      ],
      "name": "AddressEmptyCode",
      "type": "error"
    },
    {
      "inputs": [
        {
          "internalType": "address",
          "name": "account",
          "type": "address"
        }
      ],
      "name": "AddressInsufficientBalance",
      "type": "error"
    },
    {
      "inputs": [],
      "name": "FailedInnerCall",
      "type": "error"
    },
    {
      "inputs": [],
      "name": "ReentrancyGuardReentrantCall",
      "type": "error"
    },
    {
      "inputs": [
        {
          "internalType": "address",
          "name": "token",
          "type": "address"
        }
      ],
      "name": "SafeERC20FailedOperation",
      "type": "error"
    },
    {
      "anonymous": false,
      "inputs": [
        {
          "indexed": true,
          "internalType": "address",
          "name": "account",
          "type": "address"
        },
        {
          "indexed": false,
          "internalType": "uint256",
          "name": "amount",
          "type": "uint256"
        }
      ],
      "name": "Deposit",
      "type": "event"
    },
    {
      "anonymous": false,
      "inputs": [
        {
          "indexed": true,
          "internalType": "address",
          "name": "account",
          "type": "address"
        },
        {
          "indexed": false,
          "internalType": "uint256",
          "name": "amount",
          "type": "uint256"
        }
      ],
      "name": "Redeem",
      "type": "event"
    },
    {
      "anonymous": false,
      "inputs": [
        {
          "indexed": true,
          "internalType": "address",
          "name": "account",
          "type": "address"
        },
        {
          "indexed": false,
          "internalType": "uint256",
          "name": "amount",
          "type": "uint256"
        }
      ],
      "name": "Withdraw",
      "type": "event"
    },
    {
      "anonymous": false,
      "inputs": [
        {
          "indexed": false,
          "internalType": "uint256",
          "name": "newRate",
          "type": "uint256"
        }
      ],
      "name": "YieldUpdated",
      "type": "event"
    },
    {
      "inputs": [],
      "name": "cusdcToken",
      "outputs": [
        {
          "internalType": "contract IERC20",
          "name": "",
          "type": "address"
        }
      ],
      "stateMutability": "view",
      "type": "function"
    },
    {
      "inputs": [
        {
          "internalType": "uint256",
          "name": "amount",
          "type": "uint256"
        }
      ],
      "name": "deposit",
      "outputs": [],
      "stateMutability": "nonpayable",
      "type": "function"
    },
    {
      "inputs": [
        {
          "internalType": "uint256",
          "name": "",
          "type": "uint256"
        }
      ],
      "name": "investorAddresses",
      "outputs": [
        {
          "internalType": "address",
          "name": "",
          "type": "address"
        }
      ],
      "stateMutability": "view",
      "type": "function"
    },
    {
      "inputs": [
        {
          "internalType": "address",
          "name": "",
          "type": "address"
        }
      ],
      "name": "investors",
      "outputs": [
        {
          "internalType": "uint256",
          "name": "depositedAmount",
          "type": "uint256"
        },
        {
          "internalType": "uint256",
          "name": "tbillBalance",
          "type": "uint256"
        },
        {
          "internalType": "uint256",
          "name": "yieldEarned",
          "type": "uint256"
        },
        {
          "internalType": "uint256",
          "name": "lastYieldUpdate",
          "type": "uint256"
        }
      ],
      "stateMutability": "view",
      "type": "function"
    },
    {
      "inputs": [],
      "name": "lastYieldUpdate",
      "outputs": [
        {
          "internalType": "uint256",
          "name": "",
          "type": "uint256"
        }
      ],
      "stateMutability": "view",
      "type": "function"
    },
    {
      "inputs": [
        {
          "internalType": "uint256",
          "name": "amount",
          "type": "uint256"
        }
      ],
      "name": "redeem",
      "outputs": [],
      "stateMutability": "nonpayable",
      "type": "function"
    },
    {
      "inputs": [],
      "name": "tbillToken",
      "outputs": [
        {
          "internalType": "contract TBILLToken",
          "name": "",
          "type": "address"
        }
      ],
      "stateMutability": "view",
      "type": "function"
    },
    {
      "inputs": [],
      "name": "updateYield",
      "outputs": [],
      "stateMutability": "nonpayable",
      "type": "function"
    },
    {
      "inputs": [
        {
          "internalType": "uint256",
          "name": "amount",
          "type": "uint256"
        }
      ],
      "name": "withdraw",
      "outputs": [],
      "stateMutability": "nonpayable",
      "type": "function"
    },
    {
      "inputs": [],
      "name": "yieldRate",
      "outputs": [
        {
          "internalType": "uint256",
          "name": "",
          "type": "uint256"
        }
      ],
      "stateMutability": "view",
      "type": "function"
    }
  ],
  "bytecode": "0x60806040523480156200001157600080fd5b50604051620018ab380380620018ab83398181016040528101906200003791906200017d565b600160008190555082600360006101000a81548173ffffffffffffffffffffffffffffffffffffffff021916908373ffffffffffffffffffffffffffffffffffffffff16021790555081600460006101000a81548173ffffffffffffffffffffffffffffffffffffffff021916908373ffffffffffffffffffffffffffffffffffffffff1602179055508060058190555042600681905550505050620001d9565b600080fd5b600073ffffffffffffffffffffffffffffffffffffffff82169050919050565b60006200010a82620000dd565b9050919050565b6200011c81620000fd565b81146200012857600080fd5b50565b6000815190506200013c8162000111565b92915050565b6000819050919050565b620001578162000142565b81146200016357600080fd5b50565b60008151905062000177816200014c565b92915050565b600080600060608486031215620001995762000198620000d8565b5b6000620001a9868287016200012b565b9350506020620001bc868287016200012b565b9250506040620001cf8682870162000166565b9150509250925092565b6116c280620001e96000396000f3fe608060405234801561001057600080fd5b506004361061009e5760003560e01c8063b6b55f2511610066578063b6b55f251461015e578063bb21a9971461017a578063cde9252014610184578063db006a75146101a2578063fdb60b4b146101be5761009e565b80632e1a7d4d146100a35780636999ac93146100bf5780636f7bc9be146100dd5780638f8c8aee1461011057806395a25efa1461012e575b600080fd5b6100bd60048036038101906100b89190610f9d565b6101dc565b005b6100c76104da565b6040516100d49190610fd9565b60405180910390f35b6100f760048036038101906100f29190611052565b6104e0565b604051610107949392919061107f565b60405180910390f35b610118610510565b6040516101259190610fd9565b60405180910390f35b61014860048036038101906101439190610f9d565b610516565b60405161015591906110d3565b60405180910390f35b61017860048036038101906101739190610f9d565b610555565b005b6101826107b9565b005b61018c610908565b604051610199919061114d565b60405180910390f35b6101bc60048036038101906101b79190610f9d565b61092e565b005b6101c6610b9d565b6040516101d39190611189565b60405180910390f35b6101e4610bc3565b60008111610227576040517f08c379a000000000000000000000000000000000000000000000000000000000815260040161021e90611227565b60405180910390fd5b80600160003373ffffffffffffffffffffffffffffffffffffffff1673ffffffffffffffffffffffffffffffffffffffff1681526020019081526020016000206001015410156102ac576040517f08c379a00000000000000000000000000000000000000000000000000000000081526004016102a390611293565b60405180910390fd5b600460009054906101000a900473ffffffffffffffffffffffffffffffffffffffff1673ffffffffffffffffffffffffffffffffffffffff16639dc29fac33836040518363ffffffff1660e01b81526004016103099291906112b3565b600060405180830381600087803b15801561032357600080fd5b505af1158015610337573d6000803e3d6000fd5b505050506103883382600360009054906101000a900473ffffffffffffffffffffffffffffffffffffffff1673ffffffffffffffffffffffffffffffffffffffff16610c099092919063ffffffff16565b80600160003373ffffffffffffffffffffffffffffffffffffffff1673ffffffffffffffffffffffffffffffffffffffff16815260200190815260200160002060000160008282546103da919061130b565b9250508190555080600160003373ffffffffffffffffffffffffffffffffffffffff1673ffffffffffffffffffffffffffffffffffffffff1681526020019081526020016000206001016000828254610433919061130b565b9250508190555042600160003373ffffffffffffffffffffffffffffffffffffffff1673ffffffffffffffffffffffffffffffffffffffff168152602001908152602001600020600301819055503373ffffffffffffffffffffffffffffffffffffffff167f884edad9ce6fa2440d8a54cc123490eb96d2768479d49ff9c7366125a9424364826040516104c79190610fd9565b60405180910390a26104d7610c88565b50565b60055481565b60016020528060005260406000206000915090508060000154908060010154908060020154908060030154905084565b60065481565b6002818154811061052657600080fd5b906000526020600020016000915054906101000a900473ffffffffffffffffffffffffffffffffffffffff1681565b60008111610598576040517f08c379a000000000000000000000000000000000000000000000000000000000815260040161058f906113b1565b60405180910390fd5b6105e7333083600360009054906101000a900473ffffffffffffffffffffffffffffffffffffffff1673ffffffffffffffffffffffffffffffffffffffff16610c92909392919063ffffffff16565b600460009054906101000a900473ffffffffffffffffffffffffffffffffffffffff1673ffffffffffffffffffffffffffffffffffffffff166340c10f1933836040518363ffffffff1660e01b81526004016106449291906112b3565b600060405180830381600087803b15801561065e57600080fd5b505af1158015610672573d6000803e3d6000fd5b505050506000600160003373ffffffffffffffffffffffffffffffffffffffff1673ffffffffffffffffffffffffffffffffffffffff1681526020019081526020016000209050818160000160008282546106cd91906113d1565b92505081905550818160010160008282546106e891906113d1565b9250508190555042816003018190555081816000015403610767576002339080600181540180825580915050600190039060005260206000200160009091909190916101000a81548173ffffffffffffffffffffffffffffffffffffffff021916908373ffffffffffffffffffffffffffffffffffffffff1602179055505b3373ffffffffffffffffffffffffffffffffffffffff167fe1fffcc4923d04b559f4d29a8bfc6cda04eb5b0d3c460751c2402c5c5cc9109c836040516107ad9190610fd9565b60405180910390a25050565b6000600654426107c9919061130b565b90506000805b6002805490508110156108c557600060016000600284815481106107f6576107f5611405565b5b9060005260206000200160009054906101000a900473ffffffffffffffffffffffffffffffffffffffff1673ffffffffffffffffffffffffffffffffffffffff1673ffffffffffffffffffffffffffffffffffffffff1681526020019081526020016000209050600063bbf81e008560055484600001546108779190611434565b6108819190611434565b61088b91906114a5565b9050808260020160008282546108a191906113d1565b9250508190555080846108b491906113d1565b9350505080806001019150506107cf565b50426006819055507f90427aaa52d772393dbc0baaaa6eb821cdec72ed0870206d71ccc004efe43bba816040516108fc9190610fd9565b60405180910390a15050565b600460009054906101000a900473ffffffffffffffffffffffffffffffffffffffff1681565b610936610bc3565b60008111610979576040517f08c379a000000000000000000000000000000000000000000000000000000000815260040161097090611548565b60405180910390fd5b80600160003373ffffffffffffffffffffffffffffffffffffffff1673ffffffffffffffffffffffffffffffffffffffff1681526020019081526020016000206001015410156109fe576040517f08c379a00000000000000000000000000000000000000000000000000000000081526004016109f590611293565b60405180910390fd5b610a4b3382600360009054906101000a900473ffffffffffffffffffffffffffffffffffffffff1673ffffffffffffffffffffffffffffffffffffffff16610c099092919063ffffffff16565b80600160003373ffffffffffffffffffffffffffffffffffffffff1673ffffffffffffffffffffffffffffffffffffffff1681526020019081526020016000206000016000828254610a9d919061130b565b9250508190555080600160003373ffffffffffffffffffffffffffffffffffffffff1673ffffffffffffffffffffffffffffffffffffffff1681526020019081526020016000206001016000828254610af6919061130b565b9250508190555042600160003373ffffffffffffffffffffffffffffffffffffffff1673ffffffffffffffffffffffffffffffffffffffff168152602001908152602001600020600301819055503373ffffffffffffffffffffffffffffffffffffffff167f222838db2794d11532d940e8dec38ae307ed0b63cd97c233322e221f998767a682604051610b8a9190610fd9565b60405180910390a2610b9a610c88565b50565b600360009054906101000a900473ffffffffffffffffffffffffffffffffffffffff1681565b600260005403610bff576040517f3ee5aeb500000000000000000000000000000000000000000000000000000000815260040160405180910390fd5b6002600081905550565b610c83838473ffffffffffffffffffffffffffffffffffffffff1663a9059cbb8585604051602401610c3c9291906112b3565b604051602081830303815290604052915060e01b6020820180517bffffffffffffffffffffffffffffffffffffffffffffffffffffffff8381831617835250505050610d14565b505050565b6001600081905550565b610d0e848573ffffffffffffffffffffffffffffffffffffffff166323b872dd868686604051602401610cc793929190611568565b604051602081830303815290604052915060e01b6020820180517bffffffffffffffffffffffffffffffffffffffffffffffffffffffff8381831617835250505050610d14565b50505050565b6000610d3f828473ffffffffffffffffffffffffffffffffffffffff16610dab90919063ffffffff16565b90506000815114158015610d64575080806020019051810190610d6291906115d7565b155b15610da657826040517f5274afe7000000000000000000000000000000000000000000000000000000008152600401610d9d91906110d3565b60405180910390fd5b505050565b6060610db983836000610dc1565b905092915050565b606081471015610e0857306040517fcd786059000000000000000000000000000000000000000000000000000000008152600401610dff91906110d3565b60405180910390fd5b6000808573ffffffffffffffffffffffffffffffffffffffff168486604051610e319190611675565b60006040518083038185875af1925050503d8060008114610e6e576040519150601f19603f3d011682016040523d82523d6000602084013e610e73565b606091505b5091509150610e83868383610e8e565b925050509392505050565b606082610ea357610e9e82610f1d565b610f15565b60008251148015610ecb575060008473ffffffffffffffffffffffffffffffffffffffff163b145b15610f0d57836040517f9996b315000000000000000000000000000000000000000000000000000000008152600401610f0491906110d3565b60405180910390fd5b819050610f16565b5b9392505050565b600081511115610f305780518082602001fd5b6040517f1425ea4200000000000000000000000000000000000000000000000000000000815260040160405180910390fd5b600080fd5b6000819050919050565b610f7a81610f67565b8114610f8557600080fd5b50565b600081359050610f9781610f71565b92915050565b600060208284031215610fb357610fb2610f62565b5b6000610fc184828501610f88565b91505092915050565b610fd381610f67565b82525050565b6000602082019050610fee6000830184610fca565b92915050565b600073ffffffffffffffffffffffffffffffffffffffff82169050919050565b600061101f82610ff4565b9050919050565b61102f81611014565b811461103a57600080fd5b50565b60008135905061104c81611026565b92915050565b60006020828403121561106857611067610f62565b5b60006110768482850161103d565b91505092915050565b60006080820190506110946000830187610fca565b6110a16020830186610fca565b6110ae6040830185610fca565b6110bb6060830184610fca565b95945050505050565b6110cd81611014565b82525050565b60006020820190506110e860008301846110c4565b92915050565b6000819050919050565b600061111361110e61110984610ff4565b6110ee565b610ff4565b9050919050565b6000611125826110f8565b9050919050565b60006111378261111a565b9050919050565b6111478161112c565b82525050565b6000602082019050611162600083018461113e565b92915050565b60006111738261111a565b9050919050565b61118381611168565b82525050565b600060208201905061119e600083018461117a565b92915050565b600082825260208201905092915050565b7f5769746864726177616c20616d6f756e74206d7573742062652067726561746560008201527f72207468616e207a65726f000000000000000000000000000000000000000000602082015250565b6000611211602b836111a4565b915061121c826111b5565b604082019050919050565b6000602082019050818103600083015261124081611204565b9050919050565b7f496e73756666696369656e74205442494c4c2062616c616e6365000000000000600082015250565b600061127d601a836111a4565b915061128882611247565b602082019050919050565b600060208201905081810360008301526112ac81611270565b9050919050565b60006040820190506112c860008301856110c4565b6112d56020830184610fca565b9392505050565b7f4e487b7100000000000000000000000000000000000000000000000000000000600052601160045260246000fd5b600061131682610f67565b915061132183610f67565b9250828203905081811115611339576113386112dc565b5b92915050565b7f4465706f73697420616d6f756e74206d7573742062652067726561746572207460008201527f68616e207a65726f000000000000000000000000000000000000000000000000602082015250565b600061139b6028836111a4565b91506113a68261133f565b604082019050919050565b600060208201905081810360008301526113ca8161138e565b9050919050565b60006113dc82610f67565b91506113e783610f67565b92508282019050808211156113ff576113fe6112dc565b5b92915050565b7f4e487b7100000000000000000000000000000000000000000000000000000000600052603260045260246000fd5b600061143f82610f67565b915061144a83610f67565b925082820261145881610f67565b9150828204841483151761146f5761146e6112dc565b5b5092915050565b7f4e487b7100000000000000000000000000000000000000000000000000000000600052601260045260246000fd5b60006114b082610f67565b91506114bb83610f67565b9250826114cb576114ca611476565b5b828204905092915050565b7f52656465656d20616d6f756e74206d757374206265206772656174657220746860008201527f616e207a65726f00000000000000000000000000000000000000000000000000602082015250565b60006115326027836111a4565b915061153d826114d6565b604082019050919050565b6000602082019050818103600083015261156181611525565b9050919050565b600060608201905061157d60008301866110c4565b61158a60208301856110c4565b6115976040830184610fca565b949350505050565b60008115159050919050565b6115b48161159f565b81146115bf57600080fd5b50565b6000815190506115d1816115ab565b92915050565b6000602082840312156115ed576115ec610f62565b5b60006115fb848285016115c2565b91505092915050565b600081519050919050565b600081905092915050565b60005b8381101561163857808201518184015260208101905061161d565b60008484015250505050565b600061164f82611604565b611659818561160f565b935061166981856020860161161a565b80840191505092915050565b60006116818284611644565b91508190509291505056fea26469706673582212206180019987866f8ea38f16f11a310419d252447bfff0de4b1c397739691f4e0a64736f6c63430008180033",
  "linkReferences": {},
  "deployedLinkReferences": {}
}