{"abi":[{"type":"constructor","inputs":[{"name":"_cusdcToken","type":"address","internalType":"address"},{"name":"_tbillToken","type":"address","internalType":"address"},{"name":"_yieldRate","type":"uint256","internalType":"uint256"}],"stateMutability":"nonpayable"},{"type":"function","name":"cusdcToken","inputs":[],"outputs":[{"name":"","type":"address","internalType":"contract IERC20"}],"stateMutability":"view"},{"type":"function","name":"deposit","inputs":[{"name":"amount","type":"uint256","internalType":"uint256"}],"outputs":[],"stateMutability":"nonpayable"},{"type":"function","name":"investorAddresses","inputs":[{"name":"","type":"uint256","internalType":"uint256"}],"outputs":[{"name":"","type":"address","internalType":"address"}],"stateMutability":"view"},{"type":"function","name":"investors","inputs":[{"name":"","type":"address","internalType":"address"}],"outputs":[{"name":"depositedAmount","type":"uint256","internalType":"uint256"},{"name":"tbillBalance","type":"uint256","internalType":"uint256"},{"name":"yieldEarned","type":"uint256","internalType":"uint256"},{"name":"lastYieldUpdate","type":"uint256","internalType":"uint256"}],"stateMutability":"view"},{"type":"function","name":"lastYieldUpdate","inputs":[],"outputs":[{"name":"","type":"uint256","internalType":"uint256"}],"stateMutability":"view"},{"type":"function","name":"owner","inputs":[],"outputs":[{"name":"","type":"address","internalType":"address"}],"stateMutability":"view"},{"type":"function","name":"redeem","inputs":[{"name":"amount","type":"uint256","internalType":"uint256"}],"outputs":[],"stateMutability":"nonpayable"},{"type":"function","name":"tbillToken","inputs":[],"outputs":[{"name":"","type":"address","internalType":"contract TBILLToken"}],"stateMutability":"view"},{"type":"function","name":"updateYield","inputs":[],"outputs":[],"stateMutability":"nonpayable"},{"type":"function","name":"withdraw","inputs":[{"name":"amount","type":"uint256","internalType":"uint256"}],"outputs":[],"stateMutability":"nonpayable"},{"type":"function","name":"yieldRate","inputs":[],"outputs":[{"name":"","type":"uint256","internalType":"uint256"}],"stateMutability":"view"},{"type":"event","name":"Deposit","inputs":[{"name":"account","type":"address","indexed":true,"internalType":"address"},{"name":"amount","type":"uint256","indexed":false,"internalType":"uint256"}],"anonymous":false},{"type":"event","name":"Redeem","inputs":[{"name":"account","type":"address","indexed":true,"internalType":"address"},{"name":"amount","type":"uint256","indexed":false,"internalType":"uint256"}],"anonymous":false},{"type":"event","name":"Withdraw","inputs":[{"name":"account","type":"address","indexed":true,"internalType":"address"},{"name":"amount","type":"uint256","indexed":false,"internalType":"uint256"}],"anonymous":false},{"type":"event","name":"YieldUpdated","inputs":[{"name":"newRate","type":"uint256","indexed":false,"internalType":"uint256"}],"anonymous":false},{"type":"error","name":"AddressEmptyCode","inputs":[{"name":"target","type":"address","internalType":"address"}]},{"type":"error","name":"AddressInsufficientBalance","inputs":[{"name":"account","type":"address","internalType":"address"}]},{"type":"error","name":"FailedInnerCall","inputs":[]},{"type":"error","name":"SafeERC20FailedOperation","inputs":[{"name":"token","type":"address","internalType":"address"}]}],"bytecode":{"object":"0x608060405234801561001057600080fd5b50604051610d00380380610d0083398101604081905261002f91610087565b600380546001600160a01b039485166001600160a01b0319918216179091556004805493909416921691909117909155600555426006556100c3565b80516001600160a01b038116811461008257600080fd5b919050565b60008060006060848603121561009c57600080fd5b6100a58461006b565b92506100b36020850161006b565b9150604084015190509250925092565b610c2e806100d26000396000f3fe608060405234801561001057600080fd5b50600436106100a95760003560e01c806395a25efa1161007157806395a25efa14610169578063b6b55f251461017c578063bb21a9971461018f578063cde9252014610197578063db006a75146101aa578063fdb60b4b146101bd57600080fd5b80632e1a7d4d146100ae5780636999ac93146100c35780636f7bc9be146100df5780638da5cb5b146101355780638f8c8aee14610160575b600080fd5b6100c16100bc366004610a8b565b6101d0565b005b6100cc60055481565b6040519081526020015b60405180910390f35b6101156100ed366004610aa4565b6001602081905260009182526040909120805491810154600282015460039092015490919084565b6040805194855260208501939093529183015260608201526080016100d6565b600054610148906001600160a01b031681565b6040516001600160a01b0390911681526020016100d6565b6100cc60065481565b610148610177366004610a8b565b6103e5565b6100c161018a366004610a8b565b61040f565b6100c16105bb565b600454610148906001600160a01b031681565b6100c16101b8366004610a8b565b6106b3565b600354610148906001600160a01b031681565b6000546001600160a01b031633146102035760405162461bcd60e51b81526004016101fa90610acd565b60405180910390fd5b600081116102675760405162461bcd60e51b815260206004820152602b60248201527f5769746864726177616c20616d6f756e74206d7573742062652067726561746560448201526a72207468616e207a65726f60a81b60648201526084016101fa565b33600090815260016020819052604090912001548111156102ca5760405162461bcd60e51b815260206004820152601a60248201527f496e73756666696369656e74205442494c4c2062616c616e636500000000000060448201526064016101fa565b60048054604051632770a7eb60e21b81523392810192909252602482018390526001600160a01b031690639dc29fac90604401600060405180830381600087803b15801561031757600080fd5b505af115801561032b573d6000803e3d6000fd5b505060035461034792506001600160a01b03169050338361084a565b3360009081526001602052604081208054839290610366908490610b32565b9091555050336000908152600160208190526040822001805483929061038d908490610b32565b9091555050336000818152600160205260409081902042600390910155517f884edad9ce6fa2440d8a54cc123490eb96d2768479d49ff9c7366125a9424364906103da9084815260200190565b60405180910390a250565b600281815481106103f557600080fd5b6000918252602090912001546001600160a01b0316905081565b600081116104705760405162461bcd60e51b815260206004820152602860248201527f4465706f73697420616d6f756e74206d7573742062652067726561746572207460448201526768616e207a65726f60c01b60648201526084016101fa565b600354610488906001600160a01b03163330846108ae565b600480546040516340c10f1960e01b81523392810192909252602482018390526001600160a01b0316906340c10f1990604401600060405180830381600087803b1580156104d557600080fd5b505af11580156104e9573d6000803e3d6000fd5b50503360009081526001602052604081208054909350849250839190610510908490610b45565b925050819055508181600101600082825461052b9190610b45565b9091555050426003820155805482900361058257600280546001810182556000919091527f405787fa12a823e0f2b7631cc41b3ba8828b3321ca811111fa75cd3aa3bb5ace0180546001600160a01b031916331790555b60405182815233907fe1fffcc4923d04b559f4d29a8bfc6cda04eb5b0d3c460751c2402c5c5cc9109c9060200160405180910390a25050565b6000600654426105cb9190610b32565b90506000805b60025481101561067757600060016000600284815481106105f4576105f4610b58565b60009182526020808320909101546001600160a01b031683528201929092526040018120600554815491935063bbf81e0091879161063191610b6e565b61063b9190610b6e565b6106459190610b85565b90508082600201600082825461065b9190610b45565b9091555061066b90508185610b45565b935050506001016105d1565b50426006556040518181527f90427aaa52d772393dbc0baaaa6eb821cdec72ed0870206d71ccc004efe43bba9060200160405180910390a15050565b6000546001600160a01b031633146106dd5760405162461bcd60e51b81526004016101fa90610acd565b6000811161073d5760405162461bcd60e51b815260206004820152602760248201527f52656465656d20616d6f756e74206d7573742062652067726561746572207468604482015266616e207a65726f60c81b60648201526084016101fa565b33600090815260016020819052604090912001548111156107a05760405162461bcd60e51b815260206004820152601a60248201527f496e73756666696369656e74205442494c4c2062616c616e636500000000000060448201526064016101fa565b6003546107b7906001600160a01b0316338361084a565b33600090815260016020526040812080548392906107d6908490610b32565b909155505033600090815260016020819052604082200180548392906107fd908490610b32565b9091555050336000818152600160205260409081902042600390910155517f222838db2794d11532d940e8dec38ae307ed0b63cd97c233322e221f998767a6906103da9084815260200190565b6040516001600160a01b038381166024830152604482018390526108a991859182169063a9059cbb906064015b604051602081830303815290604052915060e01b6020820180516001600160e01b0383818316178352505050506108ed565b505050565b6040516001600160a01b0384811660248301528381166044830152606482018390526108e79186918216906323b872dd90608401610877565b50505050565b60006109026001600160a01b03841683610950565b905080516000141580156109275750808060200190518101906109259190610ba7565b155b156108a957604051635274afe760e01b81526001600160a01b03841660048201526024016101fa565b606061095e83836000610967565b90505b92915050565b60608147101561098c5760405163cd78605960e01b81523060048201526024016101fa565b600080856001600160a01b031684866040516109a89190610bc9565b60006040518083038185875af1925050503d80600081146109e5576040519150601f19603f3d011682016040523d82523d6000602084013e6109ea565b606091505b50915091506109fa868383610a06565b925050505b9392505050565b606082610a1b57610a1682610a62565b6109ff565b8151158015610a3257506001600160a01b0384163b155b15610a5b57604051639996b31560e01b81526001600160a01b03851660048201526024016101fa565b50806109ff565b805115610a725780518082602001fd5b604051630a12f52160e11b815260040160405180910390fd5b600060208284031215610a9d57600080fd5b5035919050565b600060208284031215610ab657600080fd5b81356001600160a01b03811681146109ff57600080fd5b6020808252602f908201527f4f6e6c792074686520636f6e7472616374206f776e65722063616e207065726660408201526e37b936903a3434b99030b1ba34b7b760891b606082015260800190565b634e487b7160e01b600052601160045260246000fd5b8181038181111561096157610961610b1c565b8082018082111561096157610961610b1c565b634e487b7160e01b600052603260045260246000fd5b808202811582820484141761096157610961610b1c565b600082610ba257634e487b7160e01b600052601260045260246000fd5b500490565b600060208284031215610bb957600080fd5b815180151581146109ff57600080fd5b6000825160005b81811015610bea5760208186018101518583015201610bd0565b50600092019182525091905056fea2646970667358221220138d54f8aeec811be3d85811de9c2f1fccfa0f9c63dfbe91ab528c0572bcc59a64736f6c63430008180033","linkReferences":{}},"methodIdentifiers":{"cusdcToken()":"fdb60b4b","deposit(uint256)":"b6b55f25","investorAddresses(uint256)":"95a25efa","investors(address)":"6f7bc9be","lastYieldUpdate()":"8f8c8aee","owner()":"8da5cb5b","redeem(uint256)":"db006a75","tbillToken()":"cde92520","updateYield()":"bb21a997","withdraw(uint256)":"2e1a7d4d","yieldRate()":"6999ac93"},"id":2}